:100000000C9452070C948A070C948A070C941C33A6
:100010000C948A070C948A070C948A070C948A071C
:100020000C948A070C948A070C9485150C94BE19BD
:100030000C94AE280C948A070C948A070C948A07B7
:100040000C948A070C948A070C948A070C948A07EC
:100050000C948A070C945E160C948A070C948A07F9
:100060000C948A070C948A070C948A070C948A07CC
:100070000C948A070C948A070C948A070C948A07BC
:100080000C948A070C948A070C948A070C948A07AC
:100090000C948A070C948A070C948A070C948A079C
:1000A0000C948A070C948A070C948A0705010902AC
:1000B000A10185020901A1000509190129081500FE
:1000C0002501950875018102050109300931158165
:1000D000257F95027508810609381581257F9501D0
:1000E00075088106050C0A38021581257F95017572
:1000F000088106C0C005010980A101850319012AF4
:10010000B700150126B700950175108100C0050CD8
:100110000901A101850419012AA002150126A002E6
:10012000950175108100C005010906A1018506052C
:100130000719E029E71500250195087501810205D9
:1001400007190029EF1500250195F07501810205B9
:10015000081901290595057501910295017503910D
:1001600001C00660FF0961A1010962150026FF00B8
:100170009520750881020963150026FF00952075FA
:10018000089102C005010906A101050719E029E748
:1001900015002501950875018102950175088101F9
:1001A0000507190029FF150026FF0095067508812F
:1001B000000508190129051500250195057501910E
:1001C00002950175039101C000DA0281FFD9F1DBCC
:1001D00020A4A62EAF00A0C0D30000A1C8D3000069
:1001E000AED580A81F408D142000FD377A585A00E4
:1001F0000004E6D6B4460200210116000000742F68
:10020000E5A3E0088A02135D003D8889C65436C321
:10021000174FE4E62B87DC61F128B57C1F0062D51F
:100220000A54DBA0CD7E4C017F66D047CCD9B3D930
:100230006E7EC32F30505A3E906142AE038A3C130B
:100240003129E9086FB8349A9CFE20BFD8416FD598
:1002500034B2BC39B858E9B1F015521BAEFCCF121C
:10026000FC288EFDCCDFB4F1376EB94A05D2B51D3E
:100270001C9246B1A11B5F8CCA76469A6B262D2F25
:10028000AAE3ECEC0BCE63F540954F2D215D39735D
:100290002313DB9A65CB669B0B077DAE706E02C4A1
:1002A000AD619CAEF4AE821E7D750D32551D676B3F
:1002B000D657B0A0EFC0112C3145C46364E5EEA35E
:1002C0009E8C64735020A729888331DB169C79713A
:1002D0006B7FA9E4E705838A33DB0E34C51BD0931B
:1002E000E80F7F74CAE81B24DC2BFAB5D6DC5B89E7
:1002F00024D52948263458867B24577883AE10515C
:10030000F67635F19A4E9D329A9E5040D85CB57281
:10031000CFE913EC478E9CF0280D859DD11560E444
:100320007D831593CE08A09D24FA3BE959E4D0C9FA
:1003300079F4D950A67E6957529BEF332DBEE70D55
:10034000365F529CDF23CE1999096A6EB7A2EB4B38
:10035000014FC193BDCCB2877C75B0B82E28D2793D
:1003600007AAB575377F7A2054C0B644BFB938E9BB
:1003700096534EC820D11E5E991796B54027E59B2F
:1003800041E43FC31BE8A25FB8325BA6A0CF1B23AA
:10039000DBDF1B4619674E710F05975DFA6DE7AEFF
:1003A00080420A404F7255EB5906E507938CF9D508
:1003B000798A7209885F5C1BEEAB809C4C2B991A82
:1003C00001F6A7A0275EFEE7F371E1DAD38DC263E1
:1003D0007F9AD4F313926B5F67A0936BAB64F61AAA
:1003E000548FBE090701DF03D1FCF490B621755785
:1003F000750E3F0AD1E17F8DF7642D9E9730737A99
:1004000003844034C66B4F86F1897722E19CECDB94
:100410004D4066181267F9D7A9EA2A4700008FB73E
:1004200065F3D22CCCDC0001AF048B1100005B29FA
:1004300023F9B1C467FB020000000004595A070801
:100440007F0807003E5B4F5B3E003E6B4F6B3E00FC
:100450001C3E7C3E1C00183C7E3C18001C577D57FF
:100460001C001C5E7F5E1C0000183C180000FFE7AB
:10047000C3E7FF00001824180000FFE7DBE7FF00D8
:1004800030483A060E00262979292600407F0505C6
:100490000700407F05253F005A3CE73C5A007F3E5D
:1004A0001C1C0800081C1C3E7F0014227F22140024
:1004B0005F5F005F5F0006097F017F00006689952E
:1004C0006A0060606060600094A2FFA2940008046B
:1004D0007E04080010207E20100008082A1C080056
:1004E000081C2A0808001E10101010000C1E0C1EFC
:1004F0000C0030383E383000060E3E0E060000007C
:100500000000000000005F0000000007000700007E
:10051000147F147F1400242A7F2A120023130864F6
:100520006200364956205000000807030000001CF6
:10053000224100000041221C00002A1C7F1C2A00CE
:1005400008083E080800008070300000080808080D
:1005500008000000606000002010080402003E5106
:1005600049453E0000427F4000007249494946002B
:100570002141494D33001814127F1000274545458D
:1005800039003C4A494931004121110907003649E7
:1005900049493600464949291E0000001400000060
:1005A0000040340000000008142241001414141408
:1005B00014000041221408000201590906003E41BE
:1005C0005D594E007C1211127C007F49494936006A
:1005D0003E41414122007F4141413E007F4949491E
:1005E00041007F09090901003E41415173007F0824
:1005F00008087F0000417F4100002040413F01008A
:100600007F08142241007F40404040007F021C02CE
:100610007F007F0408107F003E4141413E007F097A
:10062000090906003E4151215E007F091929460053
:1006300026494949320003017F0103003F40404001
:100640003F001F2040201F003F4038403F00631400
:10065000081463000304780403006159494D430002
:10066000007F414141000204081020000041414147
:100670007F000402010204004040404040000003AB
:10068000070800002054547840007F284444380074
:10069000384444442800384444287F003854545493
:1006A000180000087E09020018A4A49C78007F08A6
:1006B0000404780000447D4000002040403D0000DC
:1006C0007F102844000000417F4000007C04780433
:1006D00078007C0804047800384444443800FC184E
:1006E0002424180018242418FC007C0804040800A2
:1006F00048545454240004043F4424003C40402007
:100700007C001C2040201C003C4030403C00442821
:10071000102844004C9090907C004464544C440059
:100720000008364100000000770000000041360854
:1007300000000201020402003C2623263C000000C7
:1007400000000000404040F0F8F8FF38FFF8F83FA4
:10075000F8F8FF38FFF8F8F04040400000000000D3
:100760000080C0C0C0800000C0C08000000080C009
:10077000C000C0C0000080C0C00000000000C0C0B9
:10078000C0C0C000C0C000000000000000000000A9
:100790000000000000000000000000000000000059
:1007A0000000000000000000000000000000000049
:1007B00000000000000000000000000000C0F0F891
:1007C000FC3E1E06010000007F4141417F007F4149
:1007D00041417F000080C0E07E5B4F5BFEC00000B7
:1007E000C000DCD7DEDEDED7DC00C0000000000089
:1007F00000000000000000000000000000000000F9
:1008000000000000494949FFFFFFFFE0DFBFBF00D4
:10081000BFBFDFE0FFFFFFFF4949490000000000C4
:100820001F3F6060E0BF1F007F7F071E381E077FED
:100830007F007F7F0E1F3B716000000000007F7F04
:100840000C0C0C007E7E007F7E0303007F7E030382
:100850007E7E03037F7E000F3E703C063C703E0FA1
:1008600000327B49493F7E007F7E0303001E3F69C3
:10087000696F2600000000000000000000030F1F49
:100880003F3C7870600000007F4141417F007F4124
:1008900041417F00307B7F7830202030787F3B00E3
:1008A00003000F7F0F0F0F7F0F00030000000000F9
:1008B0000000000000000000000000000000000038
:1008C00000000000010101070F0F7F0F7F0F0F7E57
:1008D0000F0F7F0F7F0F0F070101010000000000C5
:1008E0000000000000010100000000000000000006
:1008F00000000000000000000000000000000000F8
:1009000000000000000000000000000000000000E7
:1009100000000000000000000000000000000000D7
:1009200000000000000000000000000000000000C7
:1009300000000000000000000000000000000000B7
:1009400000000000000000000000000000000000A7
:100950000000000000000000000000000000000097
:100960000000000000000000000000000000000087
:10097000000000000000000000000000000000AFC8
:1009800000AE4350534C4B000A0A00556E64656636
:10099000004C6F7765720052616973650042617344
:1009A000650A004C41594552000A0A00556E6465BB
:1009B00066005177727400000A0A000000000040CF
:1009C000C0E0A4BE1E1A1A090909010101010101B2
:1009D0000100000000000000000000000000000016
:1009E0008080808080808080808080808080808007
:1009F0008080800000000000000000000000000077
:100A000000000000000000000000000000000000E6
:100A100001010000000000020201010105050404BB
:100A200002020206060614141434B0A0A0E0C000AE
:100A3000040406071E9EDFFFFF7030F80C0C07074A
:100A4000070F0D04000000000604041406060282CD
:100A50009793918181C1E1F1D9A181834361E1F152
:100A6000F1D9D9D0D0D0F0E4CC4440703030A0E0FF
:100A7000E0E0E1F1F1F1F1F1D1D1B13172F6F6E25C
:100A8000E2C2C08000000000000000008040400082
:100A900000000000808000008080800000000000D6
:100AA0000000000000000001030316163D6D99BB15
:100AB000F3C36777373F1F0E0400000707070606DA
:100AC000041C04C0C0C0808080848E9EBFBFF7F726
:100AD000E3E7F7FFFCCCCBCFFFFF7F5F5F466020F3
:100AE0002020301018180808101030302020212342
:100AF00067676F6C6C7C7C5C5F5F5F5B5B4B6F6F91
:100B00006F6F63717434303232191D989ACC4C0E69
:100B10000E07E5E3A20301012100E8E880F0F4F00C
:100B2000F8F8F0F2F2F2E6E6E7CFCF8B99113160F8
:100B3000C0C08000000000000000000000000000B5
:100B4000000000000103030606040C0C08083878B6
:100B5000784848CCCCCCCCCCC4C4C4C4444E4E4A57
:100B60007A7B793838301010101010101030303077
:100B70002121202222222222222222222222222259
:100B8000222222222232303131313130101010181D
:100B90001818190B0F0E0C040C0C0809191919134D
:100BA00013333333332323232723232323213130C8
:100BB00034131B0E0000000000000029001E001F5F
:100BC000002000210022002B0014001A000800154C
:100BD000001700E10004001600070009000A00E009
:100BE000001D001B00060019000500E200E30021C3
:100BF000522C006152A8004C00270026002500243A
:100C00000023002A00130012000C0018001C0034FE
:100C10000033000F000E000D000B00E1003800371C
:100C200000360010001100E400E6002252280062A5
:100C3000522B0801003A003B003C003D003E0035CD
:100C4000001E001F00200021002200010000000003
:100C500000000000004B0001000000000000000048
:100C6000004E0001000100010001000100010044EC
:100C70000043004200410040003F002A00270026B8
:100C8000002500240023004C0000004F00520051BA
:100C9000005000010000004F09520951095009019C
:100CA0000001000100010001000100350001000108
:100CB0000001000100010039001E021F0220022174
:100CC00002220201000000000000000000000001FC
:100CD000007A007B007C007D0046000100010001DD
:100CE00000010001000100010001000100010001FC
:100CF000000100010027022602250224022302012E
:100D000000310030022F022E002D0035023102305A
:100D1000022F022E022D020100010001000100013C
:100D2000000100A900AA00DA00D900010001004F6B
:100D3000095009010001000100010009025B0003E4
:100D40000100A0FA090400000103010100092111BA
:100D50000100012244000705810308000109040184
:100D600000020300000009211101000122220007F6
:100D70000582032000010705030320000109040286
:100D800000010300000009211101000122B6000743
:100D9000058403200001120100020000000832FC5B
:100DA00087020100010203011C0376006900610053
:100DB0006C003A00660036003400630032006200C6
:100DC0003300630000000C0353006F0066006C00EA
:100DD000650000001A034A006F007300650066009A
:100DE0004100640061006D00630069006B00000059
:100DF00004030904000000000000000000000000DF
:100E000000000000000000000000000000000000E2
:100E100000000000000000007E0F00D4FFFFFFC7AD
:100E20000000007800000000000000002A2B2800CD
:100E30000000000000000000000000000000002989
:100E4000000000002C1E3420212224342627252EC9
:100E5000362D3738271E1F20212223242526333301
:100E6000362E37381F0405060708090A0B0C0D0E2D
:100E70000F101112131415161718191A1B1C1D2FF9
:100E80003130232D350405060708090A0B0C0D0E19
:100E90000F101112131415161718191A1B1C1D2FD9
:100EA0003130354C11241FBECFEFDAE0DEBFCDBFAD
:100EB00004B603FE18C08091E1059091E205A0916F
:100EC000E305B091E4058730904BA740B04B59F44F
:100ED0001092E1051092E2051092E3051092E405EC
:100EE000E0E0F8E3099511E0A0E0B1E0EEE1FBE617
:100EF00002C005900D92AC3CB107D9F725E0ACECEF
:100F0000B1E001C01D92A13EB207E1F70E94D528D1
:100F10000C9440350C940000E8EDF0E080818E7F69
:100F200080831092E2001092DA001092E100A0EEAD
:100F3000B0E08C9181608C9380818F77808319BC25
:100F4000A7EDB0E08C918E7F8C9380818F7E808323
:100F50001092C70508952091E4003091E50095E6D0
:100F6000A9012091EC00822F817020FF06C08091A2
:100F7000E80080FF06C080E008952091E80022FD8F
:100F80001AC08091D405882389F0853089F080913A
:100F9000EB0085FD0FC02091E4003091E500421781
:100FA0005307F9F29150E1F684E0089582E0089544
:100FB00083E0089581E008958091D60587FF13C0EE
:100FC0008091E80082FF06C08091E8008B778093D3
:100FD000E80004C08091D4058111F2CF089580917A
:100FE000D4058823D9F38091E80080FFF8CF809161
:100FF000E8008E77ECCF982F9093E900242F762F7E
:1010000050E0891731F07091EC002091ED00509183
:10101000F00021FD07C09F5F973071F78093E900D2
:1010200081E008953091EB003E7F3093EB003091EA
:10103000ED003D7F3093ED003091EB003160309357
:10104000EB007093EC002093ED005093F0002091A2
:10105000EE0027FDE0CF80E00895B0E0A0E0E3E3FC
:10106000F8E00C945634C8EDD0E088818F7E8883F8
:10107000E7EDF0E080818160808384E082BF81E0E1
:101080008093C70588818E7F888302EE10E0F80187
:1010900010821092DA0081EEC82ED12CF601108257
:1010A00088818F77888388818068888388818F7D15
:1010B000888319BC1092D4051092D5051092D305DF
:1010C0001092D20590EEE92EF12CF70180818B7FF2
:1010D000808388818160888342E060E080E00E94B4
:1010E000FB07F60180818E7F8083F801808181601B
:1010F0008083808188608083F70180818E7F8083F8
:10110000888180618883CDB7DEB7E8E00C947234C3
:10111000FC018091DC059091DD0586179707A0F012
:101120006115710529F49091E8009E779093E8008D
:1011300090E06115710551F4911108C08091E800AB
:1011400082FF34C080E00895BC01F2CF8091D405C5
:101150008823C1F18530C1F18091E80083FD30C062
:101160008091E80082FDEACF8091E80080FFE1CF26
:101170008091F3002091F200382F6115710519F06C
:101180002830310558F091E02830310509F090E021
:101190002091E8002E772093E800CBCF81918093B7
:1011A000F100615071092F5F3F4FE7CF8091D40567
:1011B000882341F0853041F08091E80083FFBECF65
:1011C00081E0089582E0089583E008958091C90543
:1011D00008952FB7F8946091C3057091C40580916C
:1011E000C5059091C6052FBF089590914D01992393
:1011F000D1F09091C00597FF16C0E82FE695E695CF
:10120000E695EE31E0F4F0E0EA52FE4F282F277029
:1012100081E090E001C0880F2A95EAF780959281DD
:10122000892382830895E0EDF1E09191891303C051
:10123000DF0111971C9291E0E63DF907B1F708959F
:1012400090914D019923C1F09091C00597FF14C072
:10125000E82FE695E695E695EE31F8F4F0E0EA52EF
:10126000FE4F877021E030E001C0220F8A95EAF737
:101270008281822B82830895A0EDB1E0EFEF90E0B0
:101280002D91821751F0EF3F19F4211101C0E92F80
:101290009F5F9630A9F7EF3F09F408950E2E000CDA
:1012A000FF0BE253FE4FE6CFA3E0B0E0EAE5F9E042
:1012B0000C945C342091BE053091BF052817390786
:1012C000A1F09093BF058093BE05E091BC05F0911D
:1012D000BD05309751F024E029839B838A830084E5
:1012E000F185E02DCE01019609952396E2E00C945C
:1012F0007834A3E0B0E0EFE7F9E00C945C3420919F
:10130000BA053091BB0528173907A1F09093BB05AA
:101310008093BA05E091BC05F091BD05309751F07E
:1013200023E029839B838A830084F185E02DCE010D
:10133000019609952396E2E00C9478348091B805E3
:10134000882359F0E091BC05F091BD05309729F054
:101350000190F081E02D0995089580E008954115F0
:10136000510511F0FA01099508958091AA0580FDB3
:1013700016C081FD16C082FD16C08091A905882384
:10138000A1F0883280F428E0829FC001112468E235
:1013900070E00E948F34862F672B39F0089582E029
:1013A000089584E0089588E0089581E0089580918B
:1013B000AA0580FD14C081FD14C082FD16C0809175
:1013C000A805882381F08E3180F420E5829FC0013A
:1013D00011246EE170E00E948F34862F089584E11D
:1013E000089588E2089588E0089580E50895282FFB
:1013F00035EB2303C001112497FF04C080589109E5
:10140000892F089580589F4FFBCFCF93DF93EC0136
:1014100040919D0550919E0560919F057091A0059A
:101420002FB7F8948091C3059091C405A091C5058C
:10143000B091C6052FBF841B950BA60BB70B843F3D
:101440009140A105B10518F580919D0590919E05EB
:10145000A0919F05B091A0058093990590939A055E
:10146000A0939B05B0939C0584EF91E0A0E0B0E0D1
:101470008093950590939605A0939705B093980552
:10148000D093A505C093A405DF91CF9108950E9444
:10149000E9086093990570939A0580939B05909352
:1014A0009C0582E390E0A0E0B0E0E2CFFC01848103
:1014B000862351F492819923B9F06923808583FFB3
:1014C00005C081E061110FC080E00895892F8F7001
:1014D00092959F70982B862F8F7062956F70682BF6
:1014E00081E09613F1CF089581E0FDCFFC01680FF4
:1014F000791F8FEF91E32191822728E030E087FF69
:1015000009C0880F892721503109C9F7E617F70765
:1015100091F70895880FF7CF90E06623A1F0845BE0
:101520009E4FFC0120812F3F89F0E22FE295EF7062
:10153000F0E080A190E02F7002C0959587952A95E4
:10154000E2F781700895855B9E4FEBCF80E00895B0
:1015500090E06623E9F0845B9E4FFC0180818F3F21
:10156000B1F0E82FE295EF70F0E041A18F7021E03B
:1015700030E0B90102C0660F771F8A95E2F7CB0110
:10158000962F9095942391A392A1892B82A30895DD
:10159000855B9E4FE2CF90918D05E92FF0E0409161
:1015A0008E059F012F5F3F4F23703327421713068D
:1015B000A9F0E157FA4F282F2F7780818078822B6E
:1015C00060FB87F980839F5F937090938D05809176
:1015D0008B058F5F80938B0581E0089580E00895EF
:1015E000EAEBF2E08FEE97E29683858386E198E25C
:1015F0009087878385E697E292878187168615868E
:10160000089581152CE7920741F4209193053091BC
:101610009405232B11F490E080E0089580E0089574
:1016200081E080939B020895F894E82FE295EF7093
:10163000F0E031A1282F2F7081E090E001C0880FE9
:101640002A95EAF7982F9095932391A392A1892B3D
:1016500082A3789408950F931F938091B8058823EF
:1016600029F00E94E9081F910F9108950E94E9084E
:10167000009178021091790220917A0230917B02D8
:10168000600F711F821F931FEECF9091C00592FFD4
:1016900010C041E0282F2471243009F040E031E0EF
:1016A000282F2871283009F030E0431711F02CE082
:1016B000822793FF10C041E0282F2471243109F0C4
:1016C00040E031E0282F2871283109F030E043173D
:1016D00011F02CE082273091C10530FF10C051E09D
:1016E000282F2171213009F050E041E0282F287186
:1016F000283009F040E0541711F029E0822731FF2B
:1017000010C041E0282F2171213109F040E031E083
:10171000282F2871283109F030E0431711F029E013
:10172000822794FD877E089582389105B9F1B0F43F
:101730008133910509F47DC048F48932910509F49B
:101740006DC08A32910509F47BC0089585339105F7
:1017500009F45FC08933910509F10895833E91052D
:10176000D9F138F4803E910529F1823E910579F155
:101770000895863E9105D9F1873E910509F43EC052
:10178000843E910541F52091C10521FF24C080913F
:10179000C00584FD19C087EE90E008952091C00532
:1017A000237009F05AC02091C10523FF14C089E2BB
:1017B00090E008952091C00520FD38C03091C1050A
:1017C00030FF09C024FF43C090E080E008952091DD
:1017D000C00522FDF7CF08952091C00522FD3AC033
:1017E0003091C10530FD39C024FFF5CFEDCF2091F8
:1017F000C00523FFF0CF24FDE7CFCDCF2091C0055A
:1018000023FD2EC03091C10531FFEECF84EE90E074
:1018100008952091C00525FFDECFC9CF2091C005D6
:1018200025FD21C02091C10523FFD5CF89E390E09C
:10183000D2CF2091C00526FFCECF8AE290E0089556
:101840002091C00526FFC7CF81E390E0089583EE85
:1018500090E0089582EE90E0089580EE90E0089583
:1018600086EE90E0089585E390E008951F93CF936E
:10187000DF930E94940BEC01C11580E5D807E0F5D9
:10188000C11580E2D80708F0EAC0C33CD10598F43E
:10189000C83AD10508F097C0C53AD10508F087C00D
:1018A000C430D10508F08AC0C130D10509F486C022
:1018B000D0E0C0E083C0C83ED10548F4C03ED105A9
:1018C00008F07CC0CD3CD10598F3D06577C0C11538
:1018D00081E0D80768F38D2F0E94450B182FCE01A9
:1018E00099270E94940BC12FD0E0DC2FCC27CC2766
:1018F000DF71C82BD92B62C0C03682E5D80718F536
:10190000C03482E5D80708F070C0C03282E5D8073D
:1019100008F064C0C11582E5D80708F486C02C2FF2
:101920002695269580E2289F900111248C2F8370A4
:10193000C1E0D0E002C0CC0FDD1F8A95E2F7C22BD8
:10194000D32BDD683BC0C03C82E5D807F8F4C03A31
:1019500082E5D80708F05EC0C03882E5D80708F0F5
:10196000A7CF2C2F26952695277080E2289F9001DF
:1019700011248C2F8370C1E0D0E002C0CC0FDD1F9A
:101980008A95E2F7C22BD32BDA6818C0C03E82E5F5
:10199000D80708F08DCF9E0143E0220F331F4A95F0
:1019A000E1F7207E3327CE0183709927E4CFC55A13
:1019B000D0E0CA5ADE4FC881D0E0D064CE01DF91BA
:1019C000CF911F910895C85AD0E0CC0FDD1FC75AA0
:1019D000DE4F0990D881C02DD464F0CFCF71D0E014
:1019E000DC2FCC27C16FD06AE9CF2C2F2695269506
:1019F000277080E2289F900111248C2F8370C1E012
:101A0000D0E002C0CC0FDD1F8A95E2F7C22BD32BAA
:101A1000DC68D4CF8C2F8F710E94450BC82FD0E08B
:101A2000DC2FCC27CC27DF71C9CF8C2F8F710E9480
:101A3000450B95E0D695C7959A95E1F7CF70D0E024
:101A4000DC2FCC27282F30E084FF05C084E0220F54
:101A5000331F8A95E1F7C22BD32BD069AFCFCE01CC
:101A600099270E94940BEC01A9CF809114029091C8
:101A7000B505892B9091A105909589239091A20598
:101A8000892B0895A82FA77023E0969587952A950E
:101A9000E1F7FC01EE0FFF1FE80FF91FE60FF71F3C
:101AA00050E040E080E0219130E00A2E02C03695FF
:101AB00027950A94E2F721703327042E01C0220FE4
:101AC0000A94EAF7822B4F5F5F4F4330510559F775
:101AD0000895903FC9F09A3080F48630A8F4282FFA
:101AE00030E06CEF71E0A901E6E09E9F400D511DD2
:101AF0001124CA010E94420D08959C5F923020F487
:101B000069EF71E090E0F6CF80E00895262F27700E
:101B100091E001C0990F2A95EAF723E07695679541
:101B20002A95E1F7FB01EE0FFF1FE60FF71FE40F09
:101B3000F51F50E040E0682F70E08191DF011197C0
:101B40009B01042E02C0369527950A94E2F7217076
:101B500021952827292328272C934F5F5F4F433057
:101B6000510559F70895282F862F903F79F09A3024
:101B700070F4263058F4622F70E026E0929F600DDA
:101B8000711D11244CEF51E00E94860D08959C5F59
:101B90009230E0F7622F70E049EF51E0F5CF80938B
:101BA0005E03089590915E0321E030E0F90101C0E9
:101BB000EE0F8A95EAF7D90102C0AA0FBB1F6A95FA
:101BC000E2F7EA2B01C0220F4A95EAF7892F8E230C
:101BD000E81305C0292B822F0E94CF0D0895209570
:101BE0002923F9CF21E030E001C0220F8A95EAF7DE
:101BF000209580915E0382230E94CF0D089521E0FD
:101C000030E001C0220F8A95EAF780915E03822BB3
:101C10000E94CF0D089580935B030895982F9295AD
:101C20009F7011F0892F94E0282F2695269511F0AA
:101C30009E5F822F869509F09F5F892F08959C01F2
:101C40003A9521153F4150F5FC01EE27F170BC019A
:101C500066277270AC01442754709C0122273870AB
:101C600094FF0EC080E1EF2B09F480E0672B09F0B0
:101C70008062452B09F08064232B89F080680895E9
:101C800081E0EF2B09F480E0672B09F08260452B9F
:101C900009F08460232B19F08860089580E008958E
:101CA0000F931F93CF93DF938B01EA019091D4059B
:101CB000943061F58093E9008FEF9091E8008150B6
:101CC00095FD06C095ED9A95F1F700008111F5CFCD
:101CD0008091E80085FF1AC00E94AB07811111C0F6
:101CE0008091E80085FD06C08091E8008E778093A2
:101CF000E800F2CFF80181918F018093F1002197E4
:101D000079F78091E8008E778093E800DF91CF919A
:101D10001F910F91089543E050E0BC0184E00E94C0
:101D2000500E089546E050E0BC0184E00E94500E41
:101D3000089540E250E0BC0184E00E94500E0895F6
:101D4000CF93DF93EC0148E050E0BC0181E00E94BA
:101D5000500E88E0FE01AAECB5E001900D928A9544
:101D6000E1F7DF91CF91089581E08093E00080E278
:101D70008093D8001092C9008FE19EE40197F1F79B
:101D800000C0000087E090EBDC018093E1059093B8
:101D9000E205A093E305B093E40588E19CE00FB66B
:101DA000F894A895809360000FBE90936000FFCFD9
:101DB000B0E0A0E0EEEDFEE00C9454347C015B0159
:101DC0006A018091770201E010E08A3010F40AE0A5
:101DD00010E0C1E0D0E0B501C701F601099581111D
:101DE00004C021960C171D072CF4CDB7DEB7EAE02E
:101DF0000C947034CC9F9001CD9F300D300D112488
:101E000090E080E045E34A95F1F7000001968217E3
:101E10009307C1F7E0CFCF93C82F6FEF811160E434
:101E200084E290E00E9404356FEFC1116AE485E21C
:101E300090E00E9404356FEFC11161EF86E290E0FF
:101E40000E940435CF910895CF93DF93C2E0D2E092
:101E500060E0CE010E9404352196C11584E0D807C8
:101E6000B9F7DF91CF9108950F931F93CF93DF932D
:101E7000142F022F833020F5623010F598E0899FEF
:101E8000E001112484E0689FB0011124C60FD71F20
:101E9000C057DE4F82E090E0442311F090E080E0F4
:101EA000632F8C0F9D1F0E94043583E090E0112367
:101EB00011F081E090E0602F8C0F9D1F0E9404358F
:101EC000DF91CF911F910F9108951F93CF93DF93CF
:101ED000122F8330E0F46A30D0F44630C0F4C42FBF
:101EE000D0E0CC0FDD1F9CE0699FC00DD11D1124F7
:101EF00098E7899FC00DD11D1124632FCE018896CC
:101F00000E940435612FCE0189960E940435DF912D
:101F1000CF911F91089584E290E00E94E6348034CE
:101F200089F485E290E00E94E6348A3459F486E22E
:101F300090E00E94E63491E0813F09F090E0892F23
:101F40008170089580E0FCCFFF920F931F93CF9391
:101F5000DF93F42E833070F5623060F528E0829FC5
:101F60008001112434E0639FB0011124060F171F74
:101F700000571E4F82E090E0442311F090E080E093
:101F8000800F911F0E94E634C82FD0E0DC2FCC27B1
:101F900083E090E0FF2011F081E090E0800F911F3E
:101FA0000E94E6349E01282BC901CDB7DEB7E5E0DB
:101FB0000C94753490E080E0F8CF0F931F93CF938B
:101FC000DF93833030F56A3020F5463010F5C42FAA
:101FD000D0E0CC0FDD1F2CE0629FC00DD11D11247D
:101FE00038E7839FC00DD11D1124CE0188960E9431
:101FF000E634082F10E0102F0027CE0189960E94AA
:10200000E6349801282BC901DF91CF911F910F91E0
:10201000089590E080E0F8CF2091AB023091AC02BF
:10202000232BD9F4703F39F4603FB9F48091AD02AD
:102030009091AE0208957A3048F4663070F483309F
:1020400060F4462F672F0E94DD0F08957D3F41F415
:10205000623018F441E0833050F090E080E0089561
:102060007C3FD9F76230C8F78330B8F740E00E9470
:10207000A40F0895CF92DF92FF920F931F93CF93F7
:10208000DF936C0100915E0380915B03082BC2E03B
:10209000D0E010E0FC2EC8010C2E02C0959587956B
:1020A0000A94E2F780FD0CC02197A0F7F12C8F2D48
:1020B000DF91CF911F910F91FF90DF90CF90089506
:1020C000B6018C2F0E940C100E94360C019761F310
:1020D000EECFA6E0B0E0EFE6F0E10C945B3426E052
:1020E000FC01DE01119601900D922A95E1F7FC01A9
:1020F000258189819A81222399F0662389F00E94A3
:102100003A10182F682F89819A810E94B30D698136
:102110007A81812F0E940C102696E3E00C9477348C
:102120000E94690D182FF3CFA4E1B0E0EAE9F0E1D5
:102130000C944F34609093057090940581E090E08A
:10214000909394058093930583E2E82E8DE0F82E1A
:102150009BEBA92E9BE0B92E10E0650100E015C0B5
:10216000F40125913491452D602F812F0E94650F38
:1021700082E0880E911C5394E6E05E12F1CFFCE001
:10218000CF0ED11C0F5F0A3019F04601512CE8CF59
:10219000F7012591349141E060E0812F0E94340FD6
:1021A000F70132962591349140E060E0812F0E9442
:1021B000340FF70134962591349141E061E0812F8D
:1021C0000E94340FF70136962591349140E061E08A
:1021D000812F0E94340F88E0E80EF11C1F5FE8E7B2
:1021E000AE0EB11C133009F0B8CF1A8219821C82CE
:1021F0001B821E821D8218861F8288EC90E09A87BF
:1022000089874AE050E068EA71E0CE0101960E94B9
:1022100028357E01FBE0EF0EF11CF70111920A95C3
:10222000E9F78FEF9FEF988B8F8787E08C8B02EB1E
:1022300011E04AE050E0B801C7010E942835065F6E
:102240001F4F02301007A9F7709294056092930512
:102250006496EFE00C946B3480E00E940B0F60E01A
:1022600087E290E00E9404350E9494100E94240F9F
:1022700081E00E940B0F08959B0181110AC04AE082
:1022800050E068EA71E0C9010E94D63490E080E035
:1022900008958FEF9FEF0895AAE0B0E0E2E5F1E145
:1022A0000C9452340CED12E08AECC82E82E0D82E49
:1022B00092EBE92EFF24F39427E0922E39ECA32E23
:1022C00032E0B32E88248394D6010D931D936D01C3
:1022D0004AE050E0B701CE0101960E94D634F801E1
:1022E0003896DF01892D1D928A95E9F789819A81B7
:1022F000D80111969C938E938F8112968C9312978E
:102300008D8113968C931397888514968C931497CC
:10231000898515968C9315978B819C8117969C9334
:102320008E93169718961C9218978A8587FF3BC044
:102330001E961C921E921D9780FF03C0D80118960E
:102340008C9281FF04C0F80190859260908782FF93
:1023500007C0D80118969C911897946018969C9382
:1023600083FF04C0F80190859860908784FF07C0C0
:10237000D80118969C911897906118969C9385FFA8
:1023800004C0F801808580628087015F1F4FFAE0FA
:10239000EF0EF11C82E0E816F80609F095CF2A96B8
:1023A000ECE00C946E34F801B686A586C5CFCF93C9
:1023B000C0914D010E94350DCC2351F19091C00583
:1023C00097FF26C08093D70140E250E065E172E0BC
:1023D00086ED91E00E94B934892BC1F080E2E6EDF0
:1023E000F1E0A5E1B2E001900D928A95E1F7E0916C
:1023F000BC05F091BD05309749F086E08093D60189
:102400000480F581E02D86ED91E00995CF91089546
:102410008093CE0148E050E065E372E08EEC91E0FD
:102420000E94B934892B91F388E0EEECF1E0A5E34A
:10243000B2E001900D928A95E1F7E091BC05F09130
:10244000BD05309719F30280F381E02D8EEC91E009
:10245000DCCFCF93DF93EC0149855A856D857E856E
:102460000E94AF098B81982F90958091B5058923A3
:102470008093B5050E94D71185E0FE0111928A95DF
:10248000E9F7DF91CF910895CF93DF93EC018C8131
:1024900081FD11C082608C838091B5059B81892B61
:1024A0008093B5050E94D7114F8158856D857E8533
:1024B000CE010E94AF091092B7051092B6058C812B
:1024C00080FD03C0CE010E942912DF91CF910895B3
:1024D000882341F080959091B50589238093B505B7
:1024E0000E94D7110895882339F09091B505982B53
:1024F0009093B5050E94D7110895882341F08095E7
:10250000909114028923809314020E94D711089598
:10251000882339F090911402982B909314020E9412
:10252000D71108951F93CF93DF93162F8A3039F474
:1025300081E00E943513DF91CF911F9108958D3076
:1025400011F480E0F6CFC0915C03D0915D0396E07A
:10255000FE01A4E5B3E001900D929A95E1F7803E6B
:1025600090F186E0FE0111928A95E9F7C0915C0333
:10257000D0915D03111133C046E050E0BE0184E507
:1025800093E00E94B9349E012F573340892B91F577
:102590002A5F3F4F40915A03642F70E0C9010E94A7
:1025A0003834481B463010F4240F311D211572E0D9
:1025B000370710F030E020E021583C4F30935D03A6
:1025C00020935C03B8CFF6E08F9FB0011124625CCA
:1025D0007B4F46E050E0CE010E94B034C7CF9E0151
:1025E0002A5F3F4FFE012E173F0731F28081809511
:1025F0008193F9CFC90145E0969587954A95E1F712
:1026000041E050E0BA0102C0660F771F8A95E2F7F9
:10261000CB016091810570918205862B972BB901C2
:102620006B5F7F4FE5E076956795EA95E1F702C02D
:10263000440F551F6A95E2F7842B952B90938205E2
:1026400080938105A5CF1F93CF93DF93EC01162FC5
:10265000FE018491811104C0DF91CF911F910895F3
:10266000612F0E9492122196F3CFCF93382FE091E1
:102670005C03F0915D03EF57F34020915A03622F02
:1026800070E0CF010E943834281B822F332369F079
:1026900066E00E948334C82FC15010F4CF91089592
:1026A00060E080E20E949212F7CF9F01280F311D57
:1026B0002115324018F080E0F0E0E0E08E0F9F2F0F
:1026C000911D81589C4F90935D0380935C03E6CFEE
:1026D0000E94231381E00E9435130895AB0124E684
:1026E00030E0BC0188E70E94EC3121E0892B09F041
:1026F00020E0822F08958091870590918A0591119D
:1027000003C091E089270895882369F062E070E0B2
:1027100080E899E00E946E13811103C080918705C3
:1027200008951092870580918705EBCFCF93C091D4
:10273000870580918A058823D1F00E94E908605AB4
:1027400075418F4F9F4F60938305709384058093ED
:10275000850590938605C11108C062E070E08EE7A0
:1027600099E00E946E13811105C0C09187058C2FDE
:10277000CF91089581E080938705F7CFA4E0B0E082
:10278000E4ECF3E10C945B344091730250917402D9
:1027900060917502709176022FB7F8948091C3050D
:1027A0009091C405A091C505B091C6052FBF841BAB
:1027B000950BA60BB70B11E084369105A105B10569
:1027C00070F10E942B0B6E5F7F4F8F4F9F4F69837D
:1027D0007A838B839C838091320190913301855A57
:1027E0009D4F4091310150E04530510510F044E0DB
:1027F00050E0BE016F5F7F4F0E94C63486E090E0DC
:102800000E94C233182F882351F00E94E908609378
:102810007302709374028093750290937602812FF5
:102820002496E3E00C9477340F931F93CF93DF93B8
:10283000EC0145E050E061E672E00E94B93400919D
:102840005202109153022091540230915502EFB779
:10285000F8944091C3055091C4056091C5057091ED
:10286000C605EFBF401B510B620B730B443651057D
:102870006105710510F4892B41F18091120190914D
:102880001301855A9D4F4091110150E0463051058A
:1028900010F045E050E0BE010E94C63482E090E0B6
:1028A0000E94C233C82F882351F00E94E908609328
:1028B00052027093530280935402909355028C2FCE
:1028C000DF91CF911F910F910895C1E0F8CF4F9202
:1028D0005F927F928F929F92AF92BF92CF92DF9240
:1028E000EF92FF920F931F93CF93DF930F92CDB789
:1028F000DEB7C62E4A015901482E880F5508C2017D
:102900000E94C233782E882309F480C0C20133E0CC
:10291000880F991F3A95E1F7FC01EF5FFE4F438165
:1029200050E04115510511F041E050E08F5F9E4F9E
:10293000FC0164817581655A7D4FCE0101960E942C
:10294000C634F40140815181628173812FB7F894BC
:102950008091C3059091C405A091C505B091C605AD
:102960002FBF841B950BA60BB70B84369105A105D1
:10297000B10540F4B701C8010E94760A9981891710
:1029800009F444C00C2C000CDD08C6010E94C233BF
:10299000782E811113C0712C872D0F90DF91CF916C
:1029A0001F910F91FF90EF90DF90CF90BF90AF906D
:1029B0009F908F907F905F904F900895C60123E085
:1029C000880F991F2A95E1F7FC01EF5FFE4F4381C5
:1029D00050E0E416F50608F4A7018F5F9E4FFC0156
:1029E00064817581655A7D4FC5010E94C634B70167
:1029F000C8010E94760A99818913CDCF0E94E90807
:102A0000F4016083718382839383C6CFA701B801E9
:102A1000C5010E94C634C0CFA8E0B0E0E2E1F5E114
:102A20000C94583488E0E82EF12C07E612E09E0161
:102A30002F5F3F4F47E552E064E083E00E94671458
:102A4000082F882389F19091660280915602981789
:102A500059F110E090916A02809169028917F1F0B2
:102A6000E92FF0E0E15AFD4F848587FB662760F986
:102A70009F5F937090936A02909168029F5F90931A
:102A800068028F770E94CB0A182F8111E3CF85E06F
:102A900090E00E94C233012F082302C01111F7CF2A
:102AA0008091660280935602802F2896E6E00C946F
:102AB0007434A5E0B0E0EFE5F5E10C9456346B0119
:102AC00085E0E82EF12C0CE512E09E012F5F3F4FD0
:102AD0004EE452E061E080E00E946714882349F0F0
:102AE00095E0FE013196A9E4B2E001900D929A952D
:102AF000E1F795E0E9E4F2E0D60101900D929A95B4
:102B0000E1F72596E8E00C9472341F920F920FB60D
:102B10000F9211242F933F934F935F936F937F9363
:102B20008F939F93AF93BF93EF93FF938091E100B7
:102B300082FF09C08091E20082FF05C08091E10020
:102B40008B7F8093E1008091DA0080FF24C0809128
:102B5000D80080FF20C08091DA008E7F8093DA0059
:102B60008091D90080FF9DC080E189BD82E189BD4F
:102B700009B400FEFDCF81E08093D4058091C705A4
:102B8000811109C00E948C070E942D088091E200EB
:102B900084608093E2008091E10080FF17C0809103
:102BA000E20080FF13C08091E2008E7F8093E200FC
:102BB0008091E20080618093E2008091D800806281
:102BC0008093D80019BC85E08093D4058091E10002
:102BD00084FF2BC08091E20084FF27C080E189BD83
:102BE00082E189BD89B5982F917080FFFBCF8091DC
:102BF000D8008F7D8093D8008091E1008F7E8093F4
:102C0000E1008091E2008F7E8093E2008091E200FB
:102C100081608093E2008091D505882309F447C044
:102C200084E08093D4058091D4058091E10083FFF6
:102C300027C08091E20083FF23C08091E100877F5D
:102C40008093E10082E08093D4051092D5058091B5
:102C5000E1008E7F8093E1008091E2008E7F80937F
:102C6000E2008091E20080618093E20042E060E057
:102C700080E00E94FB078091F00088608093F00064
:102C8000FF91EF91BF91AF919F918F917F916F9144
:102C90005F914F913F912F910F900FBE0F901F901A
:102CA000189519BC1092D4051092C70574CF809165
:102CB000E30087FD93E09093D405B5CF78941F92FD
:102CC0001FB61F9211248F939F93AF93BF93809150
:102CD000C3059091C405A091C505B091C6050196A4
:102CE000A11DB11D8093C3059093C405A093C50594
:102CF000B093C605BF91AF919F918F911F901FBE5A
:102D00001F9018959C014FB7F8948091C30590913E
:102D1000C405A091C505B091C6054FBF821B930B9A
:102D200008952FB7F8948091C3059091C405A091A0
:102D3000C505B091C6052FBF08950E9491169C014C
:102D40009091B1058091B205982B21F03093AE059A
:102D50002093AD059091B3058091B405982B21F097
:102D60003093AC052093AB05E091BC05F091BD0517
:102D7000309749F082E08093AF050680F781E02D1F
:102D80008FEA95E0099508951092140280914D0103
:102D9000882339F18091C00587FF23C0E8EDF1E079
:102DA0008EE1DF011D928A95E9F790E080E00E94B4
:102DB000790990E080E00E9454091092B5050E94C4
:102DC000D71186E0EFEAF5E0DF011D928A95E9F779
:102DD0001092A8051092A9051092AA050E949D16AE
:102DE0000895E0EDF1E086E0DCCFAAE2B0E0EBEFA1
:102DF000F6E10C945B3486ED95E02091F100DC0166
:102E00002D93CD01B5E08E3D9B07B9F78091D70595
:102E1000833009F472C0B8F4813009F449C08230BB
:102E200009F4B3C08091E80083FF96C28091D60573
:102E30009091D7059A3008F08FC2E92FF0E0EE5B51
:102E4000FA4C0C94A3348A3009F48EC08B3009F408
:102E500071C0893039F78091D605813219F7809198
:102E6000DA059091DB05009711F00297D9F6809171
:102E7000E800877F8093E8008091E80082FF38C0F7
:102E80009091F3008091F200029731F48091F1006B
:102E9000813011F0863021F48091F1008093C905D2
:102EA0008091E8008B778093E8000E94DC07BACF1E
:102EB0008091D605813A09F0B5CF8091E800877FEF
:102EC0008093E8008091DA059091DB05892B61F40D
:102ED00068E08AEC95E070E00E9488088091E80044
:102EE0008B778093E8009ECF60E090E080E0F3CFA6
:102EF0008091D4058111C0CF95CF8091D605813ABC
:102F000009F090CF8091DA059091DB05892B09F0CB
:102F100089CF8091E800877F8093E8008091E80066
:102F200080FFFCCF80914D018093F1008091E800FB
:102F30008E77B9CF8091D605813209F073CF809119
:102F4000DA059091DB05892B09F06CCF8091E800C0
:102F5000877F8093E8000E94DC078091D8058093EA
:102F60004D010E94C4165ECF8091D605813209F0D2
:102F700059CF8091E800877F8093E8000E94DC07AA
:102F80008091D9058093C8054DCF8091D605813AAF
:102F900009F048CF8091E800877F8093E800809116
:102FA000E80080FFFCCF8091C805BECF803899F043
:102FB000823809F0D1C18091DA058F70873008F02E
:102FC000CBC18093E9008091EB0085FB882780F9D5
:102FD0001092E90006C08091D2059091D30591111D
:102FE00082609091E800977F9093E8008093F100D1
:102FF0001092F1008091E8008E77AAC1882309F42D
:1030000098C1823009F0A8C18091D80581119BC177
:103010008091DA058F702FEF280F263008F09CC1C1
:103020008093E9002091EB0020FF8DC1933031F4B3
:103030008091EB0080628093EB0085C19091EB0062
:1030400090619093EB0021E030E001C0220F8A955F
:10305000EAF72093EA001092EA008091EB00886082
:10306000EACF811179C11091D8051F778091E300D3
:103070008078812B8093E3008091E800877F8093A4
:10308000E8000E94DC078091E80080FFFCCF80917F
:10309000E30080688093E30082E0111183E0809375
:1030A000D4055AC18058823008F056C12091D80505
:1030B0003091D9052C3DE3E03E07A1F583E08A83FA
:1030C0008AE289834FB7F894DE01139620E03EE050
:1030D00051E2E32FF0E050935700E49120FF03C04A
:1030E000E295EF703F5FEF708E2F90E0EA30C0F016
:1030F000C7968D939D932F5F243159F74FBF8091D1
:10310000E800877F8093E8006AE270E0CE010196D4
:103110000E9488088091E8008B778093E8001CC1AA
:10312000C096E7CF8091DA059091DB05432F5527B4
:103130004330510509F44AC078F54130510509F48E
:1031400085C08BE590E0EBE3FDE04230510509F0EE
:1031500003C12091E800277F2093E8002091DC053F
:103160003091DD058217930708F49C0140E021159A
:10317000310509F070C041116EC08091E80082FDF8
:10318000C9CF8091D405882329F2853019F2809126
:10319000E80083FFF2CFBECF4132510509F447C0AA
:1031A0004232510509F0D8C08330910508F0D4C0EF
:1031B000FC01EE0FFF1FE154FE4F0190F081E02D66
:1031C00084549E4FDC018C9190E01DC03327213048
:1031D0003105E9F02115310579F022303105F9F09A
:1031E0002330310509F0B8C0E8EAFDE0E4918E2F04
:1031F00090E0E8EAFDE007C0E0EFFDE0E4918E2F0B
:1032000090E0E0EFFDE0009709F4A6C0A2CFE4ED66
:10321000FDE0E4918E2F90E0E4EDFDE0F4CFE6ECEC
:10322000FDE0E4918E2F90E0E6ECFDE0ECCF833002
:10323000910508F091C0880F991FFC01EB53FE4FD8
:103240000190F081E02D89E090E083CF82E190E071
:10325000E6E9FDE07ECF8091D405882309F45ACFBA
:10326000853009F457CF8091E80083FD53CF8091DA
:10327000E80082FD82CF8091E80080FF78CF9091B6
:10328000F3008091F2002115310519F08830910585
:1032900050F041E0089709F040E08091E8008E7717
:1032A0008093E80064CF44914093F100319621501F
:1032B00031090196E8CF803809F04EC08091E800CE
:1032C000877F8093E8008091D5058093F10092CEAE
:1032D000811142C01091D8051230F0F58091E800BC
:1032E000877F8093E8001093D5050E94DC071123A7
:1032F00011F084E005C08091E30087FDFACF81E002
:103300008093D40542E061EC81E00E94FB0742E239
:1033100061EC84E00E94FB0742E261EC82E00E94E3
:10332000FB0742E260EC83E00E94FB078091D4053A
:1033300013C08091D805813079F481E0933009F091
:1033400080E08093D3051092E9008091E800877FA8
:103350008093E8000E94DC078091E80083FF0AC0A8
:103360008091E800877F8093E8008091EB00806285
:103370008093EB00AA96E3E00C9477341F920F92AF
:103380000FB60F9211242F933F934F935F936F9338
:103390007F938F939F93AF93BF93CF93DF93EF93DD
:1033A000FF93D091E900DF708091EC00C82FC170CD
:1033B00080FDC0E81092E9008091F000877F809343
:1033C000F00078940E94F5161092E9008091F000C8
:1033D00088608093F000CD2BCF70C093E900FF91FF
:1033E000EF91DF91CF91BF91AF919F918F917F919D
:1033F0006F915F914F913F912F910F900FBE0F9062
:103400001F9018950E94C4162FEF84E39CE0215072
:1034100080409040E1F700C0000088E19CE00FB6DA
:10342000F894A895809360000FBE90936000FFCF42
:103430004091B1059091B3052091B405662309F43C
:1034400069C0942B922B2091B205922B31F098E019
:103450009093A80591E09093A9058D3C41F40E94BA
:10346000D70981958093B2050E949D1608958E3CE0
:1034700019F40E94D709F6CF8F3C31F40E94D70986
:1034800081958093B105F0CF803D19F40E94D70952
:10349000F8CF893D29F40E94B5098093B305E4CFA4
:1034A0008A3D21F40E94B5098195F7CF8B3D31F417
:1034B0000E94B50981958093B405D6CF8C3D19F44F
:1034C0000E94B509F8CF9FE2980F983070F4815DA3
:1034D000990B21E030E001C0220F8A95EAF7809134
:1034E000B005822B8093B005BFCF8D3D31F4809124
:1034F000AA0581608093AA05B7CF8E3D21F4809103
:10350000AA058260F7CF8F3D09F0AECF8091AA0562
:103510008460F0CF8D3C59F48091B20587FF0DC0D7
:103520001092B20541110BC01092A80508C08E3C44
:1035300081F48091B20518169CF3442381F08091A8
:10354000B3059091B405892B09F08ECF1092A9058F
:103550008BCF8F3C49F447FFF0CF1092B10580919B
:10356000B2058111ECCFE0CF803D19F41416ACF315
:10357000E4CF893D29F4191604F71092B305DDCF85
:103580008A3D19F497FFD9CFF8CF8B3D29F427FF57
:10359000D4CF1092B405D1CF8C3D19F41216CCF3D0
:1035A000CCCF9FE2980F983090F4815D990B21E089
:1035B00030E0B90102C0660F771F8A95E2F7CB01B0
:1035C00080959091B00589238093B005B6CF8D3D4D
:1035D00031F48091AA058E7F8093AA05AECF8E3DEF
:1035E00021F48091AA058D7FF7CF8F3D09F0A5CFFB
:1035F0008091AA058B7FF0CF8823B9F19CEF980FBB
:10360000913A28F40E94F5080E94D711089590E29B
:10361000980F983088F4877021E030E0A90102C04B
:10362000440F551F8A95E2F7CA01809590911402C4
:10363000892380931402E8CF9BE5980F933028F4F8
:1036400090E080E00E947909089598E5980F9B31F9
:1036500028F490E080E00E945409089593E3980FC5
:10366000933118F460E00E94181A0895FF920F93A6
:103670001F93CF93DF93F82E0091A6051091A70515
:103680000115110509F449C01092A5051092A40571
:103690001092A1051092A205D8011696CD91DC9149
:1036A0009E013A9521153F4108F4D07ED1E0C11129
:1036B00001C0D0E0D8011996ED91FC911A9730978E
:1036C00031F01B966D917C9180E00995D823DD2324
:1036D00039F08CEF8C0F813A30F58C2F0E94F50871
:1036E000FF2099F0E091A605F091A705808584FD63
:1036F0000CC08091A305882341F0808191819C01B9
:10370000215031092F333E47A0F00E94D71110926B
:10371000A7051092A6051092A305C801CDB7DEB784
:10372000E5E00C9475340E94D7118C2F0E94FC1A8E
:10373000D7CF0E94050AE9CFCF93C82F8823B1F1D4
:103740008CEF8C0F813AA0F580914D01882301F117
:103750008091C00587FF1CC0EC2FE695E695E695A5
:10376000F0E0EA52FE4F828190E04C2F477021E05A
:1037700030E002C0220F331F4A95E2F782239323E1
:10378000892B79F08C2F0E94F5080E94D71109C06F
:10379000E0EDF1E08191C817A9F381E0E63DF8077B
:1037A000C9F78C2F0E9420090E94D711CF9108954C
:1037B00080E28C0F883068F4C77021E030E001C0EF
:1037C000220FCA95EAF780911402822B809314028B
:1037D000EBCFEBE5EC0FE33040F4F0E0EA5AFE4FBC
:1037E000808190E00E947909E1CFE8E5EC0FEB31B0
:1037F00050F4F0E0EE0FFF1FE75AFE4F80819181F9
:103800000E945409D3CF83E38C0F833178F661E0B3
:103810008C2F0E94181ACACF1F93CF93DF93182FB3
:10382000EB010E949C1B209739F4812F0E94FC1A07
:10383000DF91CF911F9108958FE99FE00197F1F7F4
:1038400000C000002197EFCF0F931F93CF93DF931A
:10385000C62FD42F022FFC0185818823A9F0609305
:10386000E0050E9491169093DF058093DE05C770F6
:1038700081E001C0880FCA95EAF70E948812DF91A3
:10388000CF911F910F9108958091E005681334C086
:103890008091DE059091DF050E948216883C91059B
:1038A00058F510E21D0FCD17B9F080E28C0F88306B
:1038B00040F4C77081E001C0880FCA95EAF70E9402
:1038C0007D12183048F481E09D2F977001C0880F59
:1038D0009A95EAF70E9488126AE070E0802F0E94B1
:1038E0000C1C183060F6D77081E001C0880FDA95A3
:1038F000EAF70E947D12C3CFC77081E001C0880F34
:10390000CA95EAF7F6CFB0E0A0E0E9E8FCE10C9454
:103910005434EC018AE0A82E2881222309F4CEC079
:10392000213009F04FC089818130A9F48E010E5FEA
:103930001F4F8A816AE070E0893311F460E570E01E
:103940000E940C1CE8018FE39CE90197F1F700C08D
:1039500000002196E1CF823039F48E010E5F1F4FB7
:103960008A810E949C1BEECF833039F48E010E5F5A
:103970001F4F8A810E94FC1AE5CF843011F02196F6
:10398000E2CF2A81229690E080E0AE014F5F5F4F48
:103990002053330B2A30310550F00097A1F2EFE9A4
:1039A000FFE03197F1F700C000000197F6CFA89E25
:1039B000B001A99E700D1124C901860F971F29819E
:1039C000EA01E3CFE22FF0E0EC5DF14FB490822FFB
:1039D00086958695869590E0FC01EC5EF14FE4902B
:1039E0002770F12C022E02C0F594E7940A94E2F7B6
:1039F000E1E0EE22FF24FC01EC5FF14FC490D12CFA
:103A0000022E02C0D594C7940A94E2F7F1E0CF22C7
:103A1000DD24FC01EC50F24F049110E002C015953A
:103A200007952A95E2F701701127E114F10449F096
:103A300081EE0E949C1B8FE39CE90197F1F700C087
:103A40000000C114D10449F086EE0E949C1BEFE3F4
:103A5000FCE93197F1F700C000006AE070E08B2DBF
:103A60000E940C1C8FE39CE90197F1F700C0000055
:103A7000C114D10449F086EE0E94FC1AEFE3FCE980
:103A80003197F1F700C00000E114F10449F081EE34
:103A90000E94FC1A8FE39CE90197F1F700C0000037
:103AA0000115110509F455CF6AE070E08CE20E941F
:103AB0000C1CEFE3FCE93197F1F749CFCDB7DEB746
:103AC000EAE00C947034CF93DF93EC010E941F0E58
:103AD0009E01205E31092830310510F0209741F415
:103AE0000E9488128C2F0E949C1BDF91CF91089519
:103AF0000E947312F7CF2F923F925F926F927F9244
:103B00008F929F92AF92BF92CF92DF92EF92FF92ED
:103B10000F931F93CF93DF9380918A05882309F435
:103B200081C080918805909189050E948216C29774
:103B300008F458C00E9491169093890580938805D7
:103B40008FE793E090935D0380935C038091B805C9
:103B5000882309F481C060E088EB99E00E94231378
:103B600060E087EB99E00E94681380915B030E94FC
:103B70000E0E60E0811120C082EB99E00E94681374
:103B800060E089EA99E00E94231360E083EA99E00B
:103B90000E94681380915E030E940E0E813009F42A
:103BA00053C0882361F0823009F452C060E08BE892
:103BB00099E00E94681308C08CEA99E0DFCF60E0CA
:103BC0008DE999E00E94231360E088E899E00E9463
:103BD00023130E949E0981FB662760F982E899E021
:103BE0000E9468138091810590918205892B09F0CC
:103BF00060C0809187058823A9F00E94E9080091A0
:103C00008305109184052091850530918605601B00
:103C1000710B820B930B6F3F7F4F8F4F9F4710F4B9
:103C20000E947B13DF91CF911F910F91FF90EF9036
:103C3000DF90CF90BF90AF909F908F907F906F90CC
:103C40005F903F902F90089560E087E999E0BACFA8
:103C500060E081E999E0B6CF20918105309182053D
:103C6000AFE7B3E090E080E041E050E0FC01E554D4
:103C7000F64FE4916D91E61791F0ED012197E883FD
:103C8000BC01E5E076956795EA95E1F7EA0102C0A7
:103C9000CC0FDD1F6A95E2F7BE012C2B372B019666
:103CA0008115D2E09D0711F730938205209381059D
:103CB00099CF80918A05882309F49BCF8091800554
:103CC000811197CF0E949613209181053091820532
:103CD0002115310509F48DCF80E041E050E0082F37
:103CE00010E01A01082E02C0220C331C0A94E2F7DD
:103CF000B10162237323672B11F48F5FF0CF909192
:103D00007F0590FF95C0880F880F880F809346012C
:103D100010924901895F8093470183E080934A01B3
:103D200024E630E047E050E064E471E088E70E9478
:103D3000A831892B09F05DCFA80125E0440F551F5C
:103D40002A95E1F780917F0580FF84C0EFE5F3E0DD
:103D500080E2DF011D928A95E9F7A8EBB1E004EB60
:103D600011E08CEBC82E81E0D82E97E0592E7724F5
:103D700073948D91E80129918E01240F352F311D07
:103D800021583C4FE82FF0E0E15AFC4F90E080E0F2
:103D9000652C681A872C082E01C0880C0A94EAF753
:103DA0007901A12CE701B9907E01B820662D6A192E
:103DB0006770962E062E000C770BDB2D01C0DD0FF1
:103DC0009A94EAF77195619571096770772701C038
:103DD000B6946A95EAF7BD2A6081962E9B28908258
:103DE000A39468E0A612DECF019631968830910543
:103DF00079F6CA16DB0609F0BCCF04E610E020E233
:103E000030E04FE553E060E488E70E943232892BCE
:103E100009F0EFCEE101C095D09580918105909198
:103E20008205C823D923D0938205C0938105E1CEB2
:103E30008295880F80768093460198013695279564
:103E40003695279520934901815E80934701209301
:103E50004A0166CF41585C4F04E610E020E230E0B2
:103E6000D2CFAFE0B0E0E7E3FFE10C9451348E0134
:103E70000F5F1F4F8AE0F80111928A95E9F781E9F7
:103E8000C82E81E0D82EF12CE12CAA24A394B12CC9
:103E90002CE9822E21E0922EF60181916F018F3F55
:103EA00009F442C0F894E82FE295EF70F0E021A108
:103EB0008F70A50102C0440F551F8A95E2F7CA0111
:103EC000922F982B91A392A18095892382A3789415
:103ED00000C0E6E9F1E0712C31E021912F3F09F4B7
:103EE0009EC0A22FA295AF70B0E090968C9190E00A
:103EF0002F7002C0959587952A95E2F780FD8FC0B7
:103F0000832F782A330F8E169F0639F7F6013197E3
:103F100080818F3F11F00E94140B50EA5A95F1F7FF
:103F2000F801EE0DFF1D70828FEFE81AF80A95E098
:103F3000E916F10409F0B0CF4AE050E0B8018CE78F
:103F400092E00E94B934009741F02AE0F801ACE712
:103F5000B2E001900D922A95E1F70091870210E0FE
:103F60000F551D4F892B09F45CC081E080934102FD
:103F70000E9491169093400280933F02D12CC090F2
:103F8000B805CC2009F4A4C07E01EBE0EE0EF11CD4
:103F900085E0F70111928A95E9F7809177028A30DE
:103FA00008F063C049E555E1B701C8010E94D80E89
:103FB000882309F47CC044E154E1B701C8010E94A0
:103FC000D80E882309F473C04CE055E1B701C8014D
:103FD0000E94D80E882309F46AC04EEB53E1B70162
:103FE000C8010E94D80E882309F461C0109277029C
:103FF0008091860290E045E050E0B7018F559D4FDB
:104000000E94B93421E020934802892B09F042C074
:10401000C12C8C2D8D292F96EDE00C946D3480E011
:1040200070CFD0904102DD2009F4A8CF80913F02EB
:10403000909140020E948216059708F49FCF45E0B8
:1040400050E06CE772E0C8010E94B934892B59F046
:1040500085E0ECE7F2E0D80101900D928A95E1F756
:10406000109241028CCFD12CFBCF809142029091D3
:1040700043020E948216843F914008F093CF8091C2
:104080004802882329F285E0F70111928A95E9F721
:1040900010924802A0918602B0E0AF55BD4F85E076
:1040A000FE013B9601900D928A95E1F7B2CF809187
:1040B00077028F3F31F08F5F809377028A3008F468
:1040C00097CF0E9491169093430280934202D7CFDC
:1040D000E0908602F12CA7014F555D4F7A0185E0F3
:1040E000F801ACE5B2E001900D928A95E1F765E048
:1040F00070E08CE592E00E94760A80935B0285E096
:10410000E1E6F2E0D70101900D928A95E1F788E0AF
:10411000EBE8F5E0A7E6B2E001900D928A95E1F7B1
:1041200068E070E087E692E00E94760A809366027B
:1041300080906F0290907002A0907102B090720215
:104140008091440290914502A0914602B0914702AD
:1041500088169906AA06BB0609F45BCF8092440232
:1041600090924502A0924602B09247020E94E9084E
:10417000861A970AA80AB90A809278029092790260
:10418000A0927A02B0927B0244CFA1E1B0E0EBECC6
:10419000F0E20C944C344B875C876D877E878F8769
:1041A000988B91111092B50586E0FE013B96DE01D9
:1041B000119601900D928A95E1F78D81882309F47B
:1041C00057C161E0CE0101960E9469108D8188235C
:1041D00009F44EC161E0CE0101960E9469108C0184
:1041E0008E81882311F18091B6059091B7050097D3
:1041F000E1F008171907C9F02FE0829FC0011124D0
:10420000FC01E254FD4F20812460208386549D4FA1
:10421000DC010D931C930E9444121092B50561E0DD
:10422000CE0101960E9469108C018E81882309F4C9
:10423000B8C0C80197578038910508F0E4C0F02E47
:10424000BFE0B01708F414C18FEF93E00E94E6348A
:1042500081110EC102E012E0F11038C05E01F7E0FA
:10426000AF0EB11C34E0C32E55245A94D501EC2D69
:104270001D92EA95E9F77801FFEFEF1AFF0AC801EE
:104280000E94E6348F83882309F4F2C08130D1F490
:10429000480122E0820E911CC7010E94E634D82E0C
:1042A0008887882309F4E4C08FEF8D0D8330E0F414
:1042B000780143E0E40EF11CC4010E94E6348987D2
:1042C0008823D9F1C5010E94831C37C00115E4E0A1
:1042D0001E0709F4CDC0C8010E94E634811101C057
:1042E000FA940F5F1F4FB8CF8BEF8D0D833068F5B9
:1042F000380153E0650E711CC4010E94E6348987C1
:1043000073018823D1F0780184E0E80EF11CC30129
:104310000E94E6348A87882381F089859A858130D6
:10432000AFEF9A0710F0982F8827B6E0DB1639F028
:10433000E7E0DE1639F00E94DE27870197CF0E9462
:10434000B927FBCF0E942D27F8CFF4E07401DF12CC
:10435000F4CFC4010E94E634D82E780124E0E20EA6
:10436000F11CC80103960E94E634DD2009F480C0E8
:10437000882309F47DC0482F4150550B549EC0013D
:10438000559E900D1124AD2DA150BB0B8A0F9B1F84
:10439000019798F2EFE9FFE03197F1F700C00000D4
:1043A000F7CF780127E5F21A4FEFE416F10409F090
:1043B00050F560EB72E08E2D0E943C11892B19F5AF
:1043C0008FE08E9DF0018F9DF00D1124E654FD4F7E
:1043D0008281813089F58091B0029091B102892B60
:1043E00091F08091B2029091B302892B61F080919B
:1043F000B4029091B5022091B6023091B702822B9F
:10440000932B892B09F13E803320B1F10E355CE707
:10441000150759F10F358CE7180741F00D359CE76A
:10442000190751F5809100018823F9F010920001DD
:1044300080E00E94361B1CC0823029F78091B402B4
:104440009091B502892BF9F22FE02E9DC0012F9D8E
:10445000900D1124FC01E254FD4F20812E7F20831A
:1044600086549D4F0E944412CECF81E0809300017C
:104470006196E2E10C94683480910001882309F48C
:104480001DC35801A0EEAA1AB10820901402B8E08A
:10449000AB16B10408F081C098012770332781E082
:1044A00090E001C0880F2A95EAF7332009F472C022
:1044B000282A89819A810E94690D21E030E0490112
:1044C00002C0880C991C8A95E2F74090A60550908E
:1044D000A7056090F6017090F701198A2989E22FEB
:1044E000F0E0EE0FFF1FE653FD4FE080F180E11496
:1044F000F10409F43EC3211005C0D70112968C9136
:10450000811185C0F701838190E088219921892B51
:1045100009F47DC08085982F977009F487E0F8E052
:10452000AF16B10408F053C0332009F44CC086958F
:104530008170882309F46BC0D701CD90DC900C15F5
:104540001D0519F4332009F462C0E414F50409F4DC
:104550005EC0D7011D96ED91FC91309721F08081CE
:10456000882309F454C0622DC7010E94560A88238B
:1045700009F44DC00C151D0509F056C301151105B0
:1045800009F457C3311057C3C614D70409F03FC00C
:10459000312C51C3809528228CCF332009F4D2C20C
:1045A0001093F7010093F6010E94E90860939D05BE
:1045B00070939E0580939F059093A0051092A5058A
:1045C0001092A40576CF82FB882780F9B2CF3320E2
:1045D000F1F08170AECF0E94FC1A4BC30497813A70
:1045E000910548F48C2D0E942009332009F466C2FD
:1045F0000E94D7113DCF0E94D7118FE39CE901970C
:10460000F1F700C000008C2D0E949C1BEECF998911
:104610009F5F998B63CFFC012081318102171307C3
:1046200009F045C2311045C21092A30580E00E94F6
:10463000361B44C2902F812F80C2DA011B964D9108
:104640005C911C971D966D917C91C7010E94AF09EA
:10465000F701848181FFA1C2C7010E9429128091C4
:10466000B6059091B7050817190709F096C2109280
:10467000B7051092B60591C226E241EE61EECE0179
:1046800001960E94241CF4CE27E245EE65EEF7CF9A
:1046900026E241EE60EEF3CF27E245EE64EEEFCF87
:1046A00026E241EE62EEEBCF27E245EE66EEE7CF83
:1046B00028E241E0EBCF8091C00581608093C00586
:1046C00095C08091C10588608093C1058FC080919D
:1046D000C0058260F3CF8091C0058460EFCF8091E8
:1046E000C0058860EBCF8091C1058160EDCF8091DE
:1046F000C1058260E9CF8091C0058061DFCF8091E4
:10470000C0058062DBCF8091C0058064D7CF0E9456
:10471000C4168091C0058068D1CF8091C0058C609F
:10472000CDCF8091C1058360CFCF8091C0058E7FB2
:10473000C5CF8091C105877FC7CF8091C0058D7F90
:10474000BDCF8091C0058B7FB9CF8091C005877F99
:10475000B5CF8091C1058E7FB7CF8091C1058D7F88
:10476000B3CF8091C0058F7EA9CF8091C0058F7D8A
:10477000A5CF8091C0058F7BA1CF0E94C4168091E8
:10478000C0058F779BCF8091C005837F97CF8091A5
:10479000C1058C7F99CF8091C00582FB992790F944
:1047A00021E0922790FB82F990FB83F987CF8091DB
:1047B000C105982F909591708E7F892B90FB81F980
:1047C00083CF9091C005892F8F7B96FF806476CF31
:1047D0000E94C4169091C005892F97FB87F98058D5
:1047E0006DCF61E08EE090E00E9404356091C005DD
:1047F0007091C10584E090E00E9422350E94C416A9
:1048000037CE60E0EFCF9091C005892F8F7E94FF67
:10481000806154CF9091C005892F8E7F90FF816079
:104820004DCF9091C105892F877F93FF88604CCF32
:1048300085E3EAC185E3F5C181E00E94FF0D03C075
:1048400081E00E94F20D43E062E081E00E94D20D1F
:104850000FCE82E0F6CF82E0F0CF6FEF7FEF90E0F7
:1048600080E00E9422350E94021AC8010E94690D50
:10487000F82E6EC2092F0F70907F11F00295007F05
:10488000812F6623C9F0002369F090E2910F9830E0
:1048900010F011110BC080911402082B0093140228
:1048A0000E94D711812F0E949C1B17C08091B505D3
:1048B000082B0093B505F4CF0E94FC1A002369F081
:1048C0000095105E183010F0D11016C080911402BF
:1048D0000823009314020E94D71198E0E91AF10806
:1048E000A2E0EA16F10410F40E949E0960E0CE01F5
:1048F00001960E946910BCCD8091B50508230093F4
:10490000B505E9CF892F86958695837059F081305A
:1049100021F7812F9370611102C080E090E00E9426
:104920005409DBCF812F9370611102C080E090E0C9
:104930000E947909D2CF812F0E94181ACECF892FD9
:104940008370A1F56111C9CF812F829586958770FB
:10495000880F880F412F4F70082E01C0440F0A9412
:10496000EAF7212F207114FF07C02FE030E001C0CB
:10497000220F8A95EAF72095969596959370923036
:1049800081F0822F842B933030F480915B0391303F
:1049900029F0242B82230E940B0E9FCF842B822B85
:1049A000FACF242B80915B038227F5CF869566236F
:1049B00011F0892F8170882309F48FCF812F829580
:1049C00086958770880F880F412F4F70082E01C081
:1049D000440F0A94EAF7212F207114FF07C02FE03B
:1049E00030E001C0220F8A95EAF7209596959695BA
:1049F0009370923081F0822F842B933030F4809129
:104A00005E03913029F0242B82230E94CF0D65CFC5
:104A1000842B822BFACF242B80915E038227F5CF43
:104A2000092F0F70662339F0802F0E94FF0D812F10
:104A30000E94881252CF812F0E947D12802F0E94E7
:104A4000F20D4BCFA2EF1A1769F0B3EF1B1779F0F5
:104A5000E1EF1E1316C0892F8F71662381F30E9428
:104A6000FF0D3BCF892F8F716623C9F3E8CF80E01C
:104A7000662359F29F7181E001C0880F9A95EAF789
:104A8000C4CF61110FCF193369F4FFEF27EE43E074
:104A9000F15020404040E1F700C00000812F0E940B
:104AA000FC1A1BCF8FE39CE90197F1F7F5CF332078
:104AB00029F0DC0118968C9185FFB8CDC801975577
:104AC0008F3F910511F008F085C0BFE00B9FF0010A
:104AD0001124AF0146545D4F7A018E81E254FD4F9F
:104AE000908180FB90F99083882309F4A6CD0E94E1
:104AF00091169093940280939302D70112968C9111
:104B000012978F5F12968C9312978091B5059091B2
:104B10001402892B13968C93139715964D915C91E3
:104B200016971D966D917C91C7010E94AF09F70100
:104B3000848181FF7FCD90E080E09093B6058093E3
:104B4000B7052BC08091F6019091F701081719075E
:104B500081F41092F7011092F60110929D051092C7
:104B60009E0510929F051092A0051092A505109227
:104B7000A4058091A6059091A705009709F49ECF02
:104B8000A8E0AA16B10408F046CD622D0E94560A8C
:104B9000811103C081E00E94361B8E818823B9F108
:104BA0001092E0059801305723323105E8F484E093
:104BB00090E00E94EE349093C1058093C005F80107
:104BC000E150F047E232F10508F075CDE45BFA4CB4
:104BD0000C94A334F801E851FC47E730F105E8F6FE
:104BE000E259FA4C0C94A3340631FCE71F0709F094
:104BF00074C0809114028A7A91E009F490E0909355
:104C0000F801811115CE89E20E942009F1CC06310C
:104C10002CE7120709F085C08091F80181110ACEB6
:104C200089E20E94F508E4CCC114D10409F0ACCCAF
:104C3000312CD12CC12C80E00E94361BF092A705AC
:104C4000E092A60581E08093A305F701858180931A
:104C5000A10531100EC0CD2861F0F701808191814E
:104C60009C0124503109213A310508F0B4CC0E944E
:104C7000F508D7011696CD90DC90C6019A9581155E
:104C80009F4110F4E0EEDE2299249394C60101972F
:104C90008F339E4708F0912CD7011996ED91FC9126
:104CA0001A97309731F01B966D917C9181E00995B0
:104CB0009822992079F0F701868197810E941F0E32
:104CC0008093A205C601F8E0AF16B10408F086CCC7
:104CD0000E94050A0E94D71188CC07374CE71407B9
:104CE00009F4AACD08375CE7150709F4B4CD013003
:104CF000FCE71F0709F4B7CD03302CE7120709F4CE
:104D0000ACCD01151C47B9F40E94C4165FEF84E3D3
:104D10009CE0515080409040E1F700C000000E94AC
:104D2000B40E07379CE7190709F48ACD0837ACE7BA
:104D30001A0709F48ECD09811A81882309F495CDCB
:104D4000C8010E943A10F82E682FC8010E94B30DC6
:104D5000B8018F2D0E940C100E94360C182FD82EEF
:104D60006E81892F82958F70E82EF12C8C3008F09F
:104D7000B4CDF701EB58FA4C0C94A334ACE0B0E09E
:104D8000E4ECF6E20C94553480E00CEF93E0F92E5D
:104D9000EE24E3942DEFD22E32E0C32E90918E05B7
:104DA00020918D05291709F454C0E92FF0E0E1574F
:104DB000FA4F108117FBBB24B0F81F779F5F9370E9
:104DC00090938E0580918C058F5F80938C05B11038
:104DD00008C00E9491161F8308879A878987FB86DF
:104DE00007C00E9491161F83D8869A878987CB8631
:104DF000EC864F81588569857A858B859C850E94D4
:104E0000C5208FE39CE90197F1F700C00000BB20AB
:104E1000C1F00E9491161983DA829C838B83CD8224
:104E20001E8249815A816B817C818D819E810E9485
:104E3000C5208FE39CE90197F1F700C0000081E0F5
:104E4000ADCF0E94911619830A839C838B83FD82C8
:104E5000E7CF2C96E9E00C947134A6E0B0E0E3E3F0
:104E6000F7E20C945A348C019093AE028093AD0219
:104E7000011580E21807C0F4802F0E94FC1AC801B7
:104E80000E941F0E9801205E31092830310518F06C
:104E90000115110531F40E947D122696E4E00C9470
:104EA00076340E946812F9CF80EF89838A830E944A
:104EB00091168160682F9C838B8349815A817C8104
:104EC00081E090E00E94C520E8CF0F931F93CF931D
:104ED000DF938C01EB0160EB72E08C2F0E943C11A0
:104EE000892BA1F48FE39CE90197F1F700C0000042
:104EF000DD27C155DD4F8881F80112821882833089
:104F0000F1F048F4813059F0823081F0DF91CF9197
:104F10001F910F9108958430B9F08530B9F78091D1
:104F2000B0029091B102009789F306C08091B2025D
:104F30009091B302009799F30E942D27E7CF8091BB
:104F4000B4029091B502F6CF8091B6029091B7026B
:104F5000009791F72091B0023091B1028091B20296
:104F60009091B30221153105F1F2009729F7C9019B
:104F7000E3CFA6E0B0E0EFEBF7E20C945C34909363
:104F8000AE028093AD02811520E2920730F40E94B8
:104F9000631D2696E2E00C94783480EF89838A833F
:104FA0000E9491168160682F9C838B8349815A816E
:104FB0007C8181E091E00E94C520EBCFCF93DF930D
:104FC000EC010E94B9278FE39CE90197F1F700C03B
:104FD0000000CE010E942D27DF91CF9108950F93FD
:104FE0001F93CF93DF938C01862F60EB72E00E94BA
:104FF0003C11892BB1F4C091B002D091B10220973D
:1050000081F0F8018281833051F4CE010E94DE27C5
:10501000CE010E94DE27CE010E94DE2702C084302E
:10502000D0F7DF91CF911F910F9108950F931F93A8
:10503000CF93DF938C01EB0160EB72E08C2F0E9429
:105040003C11892B09F05CC0FE01FF27D8011296A4
:105050008C911297E155FD4F8130B9F414969C91D3
:1050600092FF02C080830AC090FFFCCF82E0808361
:105070008091B2029091B3020097B9F48091B0028E
:105080009091B1020097E1F110C08230B9F5149609
:105090008C9182FD28C080FD0BC083E080838091CD
:1050A000B4029091B502009701F10E94B92728C07F
:1050B00084E080838091B6029091B7020097A9F7AF
:1050C0008091B0029091B1020097F9F00E94DE2722
:1050D0008091B2029091B302009739F78091B002AB
:1050E0009091B102E2CF85E080838091B0029091EF
:1050F000B102009729F00E94DE27F0CF86E080837E
:10510000DF91CF911F910F9108958091B2029091FC
:10511000B302B8CFA6E0B0E0E0E9F8E20C945A346C
:105120000E9491168C0180913D0290913E02801761
:10513000910781F019821A820E949116682F498185
:105140005A81792F80E090E00E94C52010933E02A2
:1051500000933D022696E4E00C9476341F921FB62D
:105160001F9211248F939F93AF93BF938091C20599
:10517000811113C08091C3059091C405A091C5050C
:10518000B091C6054196A11DB11D8093C3059093B2
:10519000C405A093C505B093C605BF91AF919F917B
:1051A0008F911F901FBE1F901895CDB7DEB7E19766
:1051B0000FB6F894DEBF0FBECDBF85B7806885BF40
:1051C00085B7806885BF84B7877F84BF0FB6F894A2
:1051D000A8958091600088618093600010926000C3
:1051E0000FBE80E890E00FB6F89480936100909332
:1051F00061000FBE8EE09BE09093CD018093CC01C7
:105200000E94F00A0E944C110E948C070E942D08F7
:105210008091E20084608093E20078948091D405CC
:105220008823A1F01091E9001F709091EC00892F64
:10523000817090FD80E8182B1092E9008091E800C1
:1052400083FD0E94F5161F701093E90082E084BD73
:1052500093E095BD9AEF97BD80936E00109278020F
:105260001092790210927A0210927B020E948B0FA8
:10527000811102C00E942C1188EC90E01091E30093
:10528000111F1127111F61F4AFE3BCE91197F1F76A
:1052900000C00000019791F70E948C071092D4057E
:1052A0001093B8051093B9051093390111110E949C
:1052B000D632EBE8F5E088E0DF011D928A95E9F748
:1052C0008091390191E0892780939702809139017B
:1052D00090939A028091390180913901811106C021
:1052E00084EF80934B0185EF80934C0160E080E078
:1052F0000E94A80A61E080E00E94A80AEFE8F1E0BD
:105300003197F1F700C0000010E080919A02181761
:1053100008F4CDC0809139018091390195E0811167
:1053200090E09093870285E0891B8093860201E9D3
:1053300011E0A6E9EA2EA1E0FA2ED8018D918D01A7
:105340008F3F11F00E94140BE016F106B1F706E949
:1053500011E0F80181918F018F3F11F00E94140B31
:10536000F1E00C391F07A9F78AE0E1EAF2E0DF017A
:10537000282F1D922A95E9F7ECE7F2E0DF011D9254
:105380008A95E9F790E080E00E94EE34853E9E4FDA
:1053900021F40E948B0F811163C065EE7EEF90E0D7
:1053A00080E00E94223560E082E090E00E940435B7
:1053B00081E080935B0361E083E090E00E9404352C
:1053C00060E074E184E090E00E94223560E086E0D5
:1053D00090E00E94043560E087E090E00E94043590
:1053E00040E050E0BA0188E090E00E94163560E0AD
:1053F00083E290E00E94043560E08CE090E00E943F
:10540000043560E08DE090E00E94043519821A8234
:105410001B821C821D821E821F82188648E050E07B
:1054200067E170E0CE0101960E94F43440E050E064
:10543000BA018FE190E00E94163580E00E940B0FC8
:105440000E942C1140E050E0BA018FE090E00E94F1
:10545000163540E050E0BA0183E190E00E94163535
:1054600082E090E00E94E6348093880284E090E03D
:105470000E94EE349093C1058093C0050E94311FB5
:10548000EFEFF6E721E0E150F0402040E1F700C007
:1054900000000E94311F8091A10280FF1AC06FEFAF
:1054A0007FEF90E080E00E9422350E94B40E60E021
:1054B000812F0E948C0A082F61E0812F0E948C0AA4
:1054C000E12FF0E0E856FD4F880F802B80831F5FAF
:1054D0001CCF83E090E00E94E6340E940B0E809186
:1054E000B805811183E080937F0580FDB7C080E817
:1054F00080935A030E9474316BE070E08FED91E06D
:105500000E946E138823E9F180917F0565E070E0C9
:1055100081FDA6C08AED91E00E946E13882389F177
:105520006DE070E088EC91E00E946E13882349F1F1
:105530000E94E908605A75418F4F9F4F6093830521
:10554000709384058093850590938605EFE7F3E0DB
:1055500080E092E0DF019C011D9221503040E1F794
:10556000F0935D03E0935C038FEF9FEF90938205D0
:105570008093810581E080938A058093870510924E
:1055800080058091B805811102C00E94D9328AE35A
:1055900091E09093BD058093BC0581EA92E03AE0EA
:1055A000380F39AB8091D405F0E4FF2E00E112E111
:1055B000853009F48FC00E94311F09E812E0E1EA4A
:1055C000EE2EE2E0FE2E23E932E0D701F8019191C0
:1055D0008D912E173F0709F487C09817C1F350909B
:1055E000B80571EAC72E72E0D72EB12C66246394F9
:1055F000D601AD906D01F80171908F017A1429F1F7
:105600007A24912C88248394872D8821B1F0552009
:10561000A1F09BA6BCA60E9491169EA78DA76FA67F
:1056200091E08A2D882109F490E098AB4BA55CA508
:105630006DA57EA58FA50E94C5209394880CF6E0E9
:105640009F12E2CFF8013197A082B3942AE0B21200
:10565000CFCF0E942B0BBB24B3944BC080E248CF2A
:1056600085ED91E059CF8091D405843029F10E94D5
:105670007B131092C20588E190E00FB6F894A895CC
:10568000809360000FBEF092600083B7817F8460DA
:1056900083BF83B7816083BF7894889583B78E7FFB
:1056A00083BF0FB6F894A8958091600088618093BD
:1056B0006000109260000FBE8091D305882351F0E6
:1056C0000E94311FE1EAF2E0819181118DC599A913
:1056D0009E13FACF8091D405853009F4C4CF0E947F
:1056E000C4160E949E0967CF981379CF0E948A281A
:1056F000B12C8091B805811111C0C12C80919B0201
:10570000882351F010929B0280918D0580938E0525
:1057100080918B0580938C05D12CA8C08091A40525
:105720009091A505892B09F43EC0409199055091AF
:105730009A0560919B0570919C052FB7F894809114
:10574000C3059091C405A091C505B091C6052FBFB2
:10575000841B950BA60BB70B4091950550919605B0
:10576000609197057091980584179507A607B7076C
:10577000D0F08091A4059091A5050E94631D109220
:10578000A5051092A4051092990510929A05109201
:105790009B0510929C05109295051092960510920B
:1057A0009705109298050091B6051091B70501155F
:1057B0001105B9F080919302909194020E94821693
:1057C000893C910570F03FE0039FC0011124FC016A
:1057D000E254FD4F208122FD04C086549D4F0E945B
:1057E00044128091B805882309F487CF0E94BE2611
:1057F000C82E84CF61E08D2D0E948C0A182F60E0A6
:105800008D2D0E948C0AE12FEE0F8E2B0D2D10E0B6
:10581000D801A856BD4FEC919E2F9370891729F19E
:10582000EE0FEE0FE82BEC93809197028D0DEF7049
:10583000F0E0E456FE4F0B561D4FA080D8019C911E
:10584000A90EAC92B1E060E0BA1524F0EFEFAE160D
:105850001CF461E00E94CB0A8A2DAA0C990B62E02D
:1058600070E00E948F34D8018C93D39480919A0277
:10587000D81608F4BFCF8091B805882319F00E948C
:10588000BE26C82ACC2039F00E942B0B0E947B1D1B
:105890000E94961304C00E947B1DB110F9CF86E0D0
:1058A000EFEAF5E08E010F5F1F4FD80101900D92D6
:1058B0008A95E1F79090B005D090B105B090B2050F
:1058C000A090B305C090B4051092B1051092B20536
:1058D0001092B3051092B4058D2D8B2909F445C0A3
:1058E0008091AD059091AE050E9482169C01909129
:1058F000A805992309F4A1C425313105B0F19F3FD2
:1059000019F09F5F9093A805DD2059F00E94D709F8
:105910009FEF1D140CF491E0899F802D112480933A
:10592000B105BB2059F00E94D70991E01B140CF07F
:105930009FEF899F802D11248093B2058091B1053E
:10594000882399F08090B205882079F00E94F709A9
:10595000882309F4BFC08093B105882D0E94F70900
:10596000882309F4B9C08093B2058A2D8C2909F4E3
:1059700045C08091AB059091AC050E9482169C01B8
:105980009091A905992309F453C421353105B0F14B
:105990009F3F19F09F5F9093A905AA2059F00E949C
:1059A000B5099FEF1A140CF491E0899F802D112402
:1059B0008093B305CC2059F00E94B50991E01C14E6
:1059C0000CF09FEF899F802D11248093B405809166
:1059D000B305882399F0A090B405AA2079F00E941D
:1059E000F709882309F47AC08093B3058A2D0E94B1
:1059F000F709882309F474C08093B4058091B00539
:105A0000981217C08091B105882311F0D81211C0E7
:105A10002091B205222311F02B110BC09091B405F7
:105A2000992311F09C1105C03091B305332309F47B
:105A3000F1C30E949D1686E0F801AFEAB5E001903F
:105A40000D928A95E1F70E949E0990919C02891718
:105A500021F080939C020E94E9088091D405843053
:105A600009F0A0CD83E08093E9008091E80082FFF7
:105A700099CD8091E80090E085FF09C00E94AB07B6
:105A800060E2C62ED12C58018823A9F191E08091C3
:105A9000E8008B778093E800992309F483CDC090C8
:105AA000AB02D090AC028981C114D10491F18E3F38
:105AB00009F0B7C08A81833020F08550833008F028
:105AC000B0C0EA81EE3008F0ACC0F0E0EF57FA4C1D
:105AD0000C94A33481E03FCF81E045CF81E084CFB7
